:100000000C9434000C9451000C9463000C94510037
:100010000C9451000C9451000C9451000C9451001C
:100020000C9451000C9451000C9451000C9451000C
:100030000C9451000C9451000C9451000C945100FC
:100040000C9451000C9451000C9453000C945100EA
:100050000C9451000C9451000C9451000C945100DC
:100060000C9451000C94510011241FBECFEFD8E026
:10007000DEBFCDBF11E0A0E0B1E0E2EEF1E002C0F2
:1000800005900D92A031B107D9F721E0A0E1B1E0D0
:1000900001C01D92A131B207E1F70E94A6000C94A5
:1000A000EF000C9400001F920F920FB60F921124D4
:1000B0008F938091C600809310018F910F900FBE97
:1000C0000F901F9018951F920F920FB60F92112448
:1000D0008F939F9380910001882321F095B181E057
:1000E000892785B99F918F910F900FBE0F901F9018
:1000F00018951092C50080E18093C400E0ECF0E018
:1001000080818260808388E98093C10086E080934B
:10011000C2000895CF93DF93EC013881332399F027
:1001200020E0E0ECF0E046EC50E0908195FFFDCF60
:10013000DA013C932F3F39F02F5FDE01A20FB11D92
:100140003C913111F2CFDF91CF91089584B18F624C
:1001500084B985B1816285B91AB87894E9E6F0E08E
:1001600080818C608083E99A0E94790090E0C0E2EF
:1001700004E0D1E012E003C090E001C09D2FEFE960
:10018000FFE03197F1F700C0000085B18C2785B9F9
:10019000EFE3FCE93197F1F700C000008091100116
:1001A000882349F080911001823619F485B18027A7
:1001B00085B9109210014C99DFCF9111DFCF81E00A
:1001C00091E00E948A00909100018D2F911180E0B2
:1001D0008093000185B1812785B99D2FD0CFF894F8
:0201E000FFCF4F
:1001E20001477265656E20707265737365640D00F8
:00000001FF
