:100000000C9434000C9451000C9473000C94510027
:100010000C9451000C9451000C9451000C9451001C
:100020000C9451000C9451000C9451000C948900D4
:100030000C9451000C9451000C9451000C945100FC
:100040000C949B000C9451000C9453000C945100A0
:100050000C9451000C9463000C9451000C945100CA
:100060000C9451000C94510011241FBECFEFD8E026
:10007000DEBFCDBF11E0A0E0B1E0E0EBF3E002C0F5
:1000800005900D92A031B107D9F721E0A0E1B1E0D0
:1000900001C01D92A231B207E1F70E94DF000C946B
:1000A000D6010C9400001F920F920FB60F921124EC
:1000B0008F938091C600809311018F910F900FBE96
:1000C0000F901F9018951F920F920FB60F92112448
:1000D0008F9380917900809310018F910F900FBEC4
:1000E0000F901F9018951F920F920FB60F92112428
:1000F0008F939F9380910001882321F095B181E037
:10010000892785B99F918F910F900FBE0F901F90F7
:1001100018951F920F920FB60F9211248F939F93F1
:1001200095B181E0892785B99F918F910F900FBE7E
:100130000F901F9018951F920F920FB60F921124D7
:100140008F938091100187BD8F910F900FBE0F90FC
:100150001F9018951092C50080E18093C400E0ECD8
:10016000F0E080818260808388E98093C10086E02E
:100170008093C2000895E0ECF0E0908195FFFDCF00
:100180008093C6000895CF93DF93EC013881332329
:1001900099F020E0E0ECF0E046EC50E0908195FF33
:1001A000FDCFDA013C932F3F39F02F5FDE01A20F24
:1001B000B11D3C913111F2CFDF91CF91089584B1FF
:1001C0008F6284B985B1816285B920E42AB9E9E6F4
:1001D000F0E080818C608083E99A80E680937C00E7
:1001E00091E090937E0010927B00EAE7F0E08FEAC6
:1001F0008083808180648083209380008AE0809364
:10020000810082E080936F0020E030E83093890025
:100210002093880083E884BD83E085BD90936E00C1
:1002200080E887BD0E94AA007894512CD0E0C0E0FD
:100230006894772475F8662463940F2EF5E8AF2E42
:10024000B12CF02D0F2EF4E8CF2ED12CF02D689488
:10025000332432F80F2EF8E8EF2EF12CF02D6894AD
:10026000882487F8912C01E810E00F2EF5E02F2E5E
:10027000F02D6894442441F803C0C0E001C0C62DAD
:100280008FE99FE00197F1F700C0000085B1872555
:1002900085B9EFE3FCE93197F1F700C000008091E8
:1002A0001101882309F456C080911101813689F02B
:1002B00040F48D3229F18D3589F18B3209F048C037
:1002C00010C08037E9F18A3751F0823609F040C01A
:1002D00002C0D62D3DC085B1832585B939C0D0E097
:1002E00037C0F80180818770853011F08F5F01C0C1
:1002F000862DF8019081987F892B808363BC28C06C
:10030000F80180818770813011F0815001C0822D09
:10031000F8019081987F892B808363BCF7018081ED
:1003200091818115904821F4F7019182808210C05B
:10033000F70180819181880F991F9183808308C084
:10034000F50180810E94BB00F60180810E94BB0004
:1003500010921101DD23B1F080911001252D30E0C4
:1003600090E0821B930B0A973CF480911001281BAC
:1003700031092A30310534F0809110010E94BB0010
:10038000509010014C9979CFC11179CF81E091E063
:100390000E94C30090910001862D911180E080930E
:1003A000000185B1842585B9C62D6ACFF894FFCFA9
:1003B00001477265656E20707265737365640D0028
:00000001FF
