S0140000556E6F5F7A6164616E6965312E7372656372
S11300000C9434000C9451000C9473000C94510023
S11300100C9451000C9451000C9451000C94510018
S11300200C9451000C9451000C9451000C94510008
S11300300C9451000C9451000C9451000C945100F8
S11300400C947D000C9451000C9453000C945100BA
S11300500C9451000C9463000C9451000C945100C6
S11300600C9451000C94510011241FBECFEFD8E022
S1130070DEBFCDBF11E0A0E0B1E0EAEAF1E002C0EA
S113008005900D92A030B107D9F721E0A0E0B1E0CE
S113009001C01D92A230B207E1F70E949D000C94AA
S11300A0D3000C9400001F920F920FB60F921124EC
S11300B08F938091C600809301018F910F900FBEA2
S11300C00F901F9018951F920F920FB60F92112444
S11300D08F9380917900809300018F910F900FBED0
S11300E00F901F9018951F920F920FB60F92112424
S11300F00F900FBE0F901F9018951F920F920FB67E
S11301000F9211248F938091000187BD8F910F90DE
S11301100FBE0F901F9018951092C50080E1809338
S1130120C400E0ECF0E080818260808388E9809301
S1130130C10086E08093C200089584B18F6284B9BF
S113014085B1816285B920E42AB9E9E6F0E08081CD
S11301508C608083E99A80E680937C0091E09093A0
S11301607E0010927B00EAE7F0E08FEA80838081D2
S113017080648083209380008DE0809381001092BE
S11301806F0026E831E0309389002093880083ECE7
S113019084BD83E085BD90936E0084E687BD0E9494
S10D01A08C007894FFCFF894FFCF91
S9030000FC
