:100000000C9434000C9451000C9451000C94510049
:100010000C9451000C9451000C9451000C9451001C
:100020000C9451000C9451000C9451000C9451000C
:100030000C9451000C9451000C9451000C945100FC
:100040000C9451000C9451000C9451000C945100EC
:100050000C9451000C9451000C9451000C945100DC
:100060000C9451000C94510011241FBECFEFD8E026
:10007000DEBFCDBF11E0A0E0B1E0E6EAF3E002C0F0
:1000800005900D92A432B107D9F721E0A4E2B1E0C6
:1000900001C01D92A532B207E1F70E946C010C94D9
:1000A000D1010C94000088E48093B8001092B9004C
:1000B000089584EA8093BC00ECEBF0E08081882313
:1000C000ECF7089584E98093BC00ECEBF0E08081CC
:1000D00084FDFDCF08958093BB0084E88093BC002D
:1000E000ECEBF0E080818823ECF70895CF93C82FE4
:1000F0000E9459008EE70E946B008C2F0E946B00BB
:100100000E94620083E08A95F1F70000CF91089584
:10011000CF93DF93209124019091000130E1839FE0
:10012000E0011124822F892B84608C2B0E947600A1
:1001300038E03A95F1F70000909124018091000198
:10014000892B8C2B0E94760038E03A95F1F700005D
:10015000DF91CF910895CF93C82F81E08093240140
:100160008C2F82958F700E9488008C2F8F700E9438
:10017000880081E28A95F1F70000CF9108950F93EE
:100180001F93CF93DF93009781F0662371F0EC010A
:100190006150062F10E00F5F1F4F080F191F899144
:1001A0000E94AB00C017D107D1F7DF91CF911F910B
:1001B0000F910895CF93C82F1092240182958F70CC
:1001C0000E9488008C2F8F700E94880081E28A959F
:1001D000F1F70000CF91089582E00E94DA0083ECED
:1001E00099E00197F1F700C00000089590E4699F3D
:1001F000800D112480680E94DA000895CF93DF9368
:10020000882341F0D82FC0E08CE10E94DA00CF5F54
:10021000DC13FACFDF91CF910895CF93DF9388233A
:1002200041F0D82FC0E088E10E94DA00CF5FDC13F4
:10023000FACFDF91CF910895CF93DF93882341F0D8
:10024000D82FC0E084E10E94DA00CF5FDC13FACF40
:10025000DF91CF9108950E9453001092240183E012
:100260000E9488008BED95E00197F1F700C0000037
:1002700083E00E9488008BED95E00197F1F700C0C4
:10028000000083E00E9488008BED95E00197F1F774
:1002900000C0000082E00E94880089EF90E0019792
:1002A000F1F700C000008CE20E94DA0088E00E94B2
:1002B000DA0081E00E94DA009FE926E881E09150AF
:1002C00020408040E1F700C0000086E00E94DA0094
:1002D0008CE00E94DA000895CF93DF93CDB7DEB7AC
:1002E00064970FB6F894DEBF0FBECDBF8EE0E1E09D
:1002F000F1E0DE01119601900D928A95E1F7FE0181
:100300003F9686E0DF011D928A95E9F7569A5E9A3C
:10031000BFEF20E782E0B15020408040E1F700C00D
:1003200000005E980E942B010E94EC006DE0CE015F
:1003300001960E94BF0061E086E00E94F6006BE03B
:1003400085E191E00E94BF0061E080E00E94F6003C
:1003500082E00E94FE0062E081E291E00E94BF0024
:1003600083E00E941C0162E081E291E00E94BF00F4
:100370009FEFA7EAB1E69150A040B040E1F700C07E
:10038000000084E00E94FE002FEF87EA91E62150F2
:1003900080409040E1F700C0000081E00E940D0124
:0603A000FFCFF894FFCF2F
:1003A600086E6170697320746573746F77790000E5
:1003B6000000000000416C61206D61206B6F74616C
:0403C6000078440077
:00000001FF
